:100000000C9446000C9465000C9465000C946500FB
:100010000C9465000C9465000C9465000C946500CC
:100020000C9465000C9465000C9465000C946500BC
:100030000C9465000C9465000C9465000C946500AC
:100040000C9465000C9465000C9465000C9465009C
:100050000C9465000C9465000C9465000C9465008C
:100060000C9465000C9465000C9465000C9465007C
:100070000C9465000C9465000C9465000C9465006C
:100080000C9465000C9465000C94650011241FBE4F
:10009000CFEFD0E4DEBFCDBF11E0A0E0B1E0E6EFEE
:1000A000F2E000E00BBF02C007900D92A031B10753
:1000B000D9F721E0A0E1B1E001C01D92A131B20762
:1000C000E1F70E94A1000C9479010C940000CF93F9
:1000D000DF9300D01F92CDB7DEB789837B836A831D
:1000E00089818A3031F48A819B81BC018DE00E9434
:1000F000670080EC90E0FC018081882F90E08072A6
:100100009927892BB1F386EC90E02981FC012083AB
:1001100080E090E00F900F900F90DF91CF910895C5
:10012000CF93DF93CDB7DEB78AE790E02AE730E0E0
:10013000F9012081206EFC0120830000DF91CF9126
:100140000895CF93DF9300D0CDB7DEB781E290E082
:10015000FC01108282E290E02FEFFC01208384E218
:1001600090E02FEFFC01208385E290E0FC011082FB
:100170008AE290E02FEFFC0120838BE290E0FC010B
:1001800010820E94900088E790E0FC0180819181BC
:100190009A83898380910E018695869586958093B2
:1001A000100180911001282F30E089819A81281751
:1001B000390730F085E290E021E0FC012083E3CFB5
:1001C00080911001882F90E0880F991F9C018981F0
:1001D0009A812817390730F085E290E023E0FC018E
:1001E0002083D1CF80911001282F30E0C901880FE2
:1001F000991F820F931F9C0189819A8128173907C3
:1002000030F085E290E027E0FC012083BCCF8091B4
:100210001001882F90E0880F991F880F991F9C016B
:1002200089819A812817390730F085E290E02FE024
:10023000FC012083A8CF80911001282F30E0C90154
:10024000880F991F880F991F820F931F9C01898126
:100250009A812817390730F085E290E02FE1FC0100
:10026000208391CF80911001282F30E0C901880FA1
:10027000991F820F931F880F991F9C0189819A8172
:100280002817390730F085E290E02FE3FC01208346
:100290007ACF80911001282F30E0C901880F991F73
:1002A000880F991F880F991F821B930B9C018981CE
:1002B0009A812817390730F085E290E02FE7FC019A
:1002C000208361CF80911001882F90E0880F991FC3
:1002D000880F991F880F991F9C0189819A8128177F
:1002E000390708F450CF85E290E02FEFFC0120831E
:0602F0004ACFF894FFCF95
:1002F6000000000200000000670000000000FF0090
:00000001FF
